:0300000002097D75
:0C097D00787FE4F6D8FD7581200209C4E3
:100AF90064657369676E6572206C7078206B6872C3
:100B090000202020323032302D31302D3038202055
:020B19002000BA
:100B8A00C180020907E4020D000A020B00080108ED
:010B9A00005A
:100AAD00120B3B7F38120B56120B3B7F0C120B5661
:100ABD00120B3B7F06120B56120B3B7F01120B568E
:070ACD007F647E00020B3F75
:100B56008F13120B3BC2A6C2A5D2A7851380120B18
:0A0B66003BC2A77F0A7E00020B3F8E
:100B70008F13120B3BD2A6C2A5D2A7851380120BEE
:0A0B80003BC2A77F0A7E00020B3F74
:060B1B00ED2430FB7D0219
:020B21008B0F38
:100B2300EFBD01062480F510800424C0F510AF103A
:080B3300120B56AF0F020B700C
:060A77008B0F8A108911AB
:100A7D00EFBD01062480F512800424C0F512AF12DB
:100A8D00120B56AB0FAA10A911120A09FF60101212
:0F0A9D000B7074012511F511E43510F51080E48C
:010AAC002227
:040B3B007F0A7E00AF
:100B3F00D3EF9400EE9400400D000000000000EF92
:060B4F001F70ED1E80EA9C
:010B5500227D
:1008000020B15C2000030208CAC200E5087017C3CB
:10081000E50A940FE509942740030208CA050AE592
:100820000A701E050922E508B40117C3E50E940CF1
:10083000E50D940040030208CA050EE50E7002059E
:100840000D22E508640260030208CAC3E50C941F88
:10085000E50B94005074050CE50C7002050B22208A
:10086000B050300065C200E5087014D3E50A94006A
:10087000E50994004054E50A150A704E150922E571
:1008800008B40114D3E50E9401E50D9400403BE556
:100890000E150E7035150D22E5086402702CD3E597
:1008A0000C9401E50B94004021E50C150C701B1510
:1008B0000B2220B313300012C200E508C39402508B
:0B08C00003050822E4F50822D2002204
:1008CB00AE09AF0A7C037DE8120A22EF2430FB7DD0
:1008DB00027F03120B21AE09AF0A7C007D64120A62
:1008EB00227C007D0A120A227F04120B1BAE09AF79
:1008FB000A7C007D0A120A227C007D0A120A227FE2
:10090B0005120B1BAE09AF0A7C007D0A120A22ED01
:10091B002430FB7D027F06120B21AE0DAF0E7C0047
:10092B007D0A120A22EF2430FB7D027F08120B2175
:10093B00AE0DAF0E7C007D0A120A22ED2430FB7D3A
:10094B00027F09120B21AE0BAF0C7C007D0A120A41
:10095B0022EF2430FB7D027F0B120B21AE0BAF0C71
:10096B007C007D0A120A22ED2430FB7D027F0C02F3
:02097B000B214E
:100AD400120AAD7BFF7A0A79F97D01E4FF120A77E5
:100AE4007BFF7A0B790A7D02E4FF120A7712080071
:050AF4001208CB80F8A0
:10098900020AD4E493A3F8E493A34003F68001F2A6
:1009990008DFF48029E493A3F85407240CC8C3336F
:1009A900C4540F4420C8834004F456800146F6DF3E
:1009B900E4800B0102040810204080900B8AE47E39
:1009C900019360BCA3FF543F30E509541FFEE49333
:1009D900A360010ECF54C025E060A840B8E493A3FA
:1009E900FAE493A3F8E493A3C8C582C8CAC583CA25
:1009F900F0A3C8C582C8CAC583CADFE9DEE780BEDD
:010B9B000059
:100A0900BB010689828A83E0225002E722BBFE02EB
:090A1900E32289828A83E493221E
:100A2200BC000BBE0029EF8DF084FFADF022E4CCB8
:100A3200F875F008EF2FFFEE33FEEC33FCEE9DEC81
:100A4200984005FCEE9DFE0FD5F0E9E4CEFD22EDC7
:100A5200F8F5F0EE8420D21CFEADF075F008EF2F11
:100A6200FFED33FD4007985006D5F0F222C398FD02
:050A72000FD5F0EA229F
:00000001FF
